{
    "contractName": "NFTAuctionFactory",
    "abi": [
        {
            "inputs": [
                {
                    "internalType": "address",
                    "name": "_template",
                    "type": "address"
                }
            ],
            "stateMutability": "nonpayable",
            "type": "constructor"
        },
        {
            "inputs": [],
            "name": "FailedDeployment",
            "type": "error"
        },
        {
            "inputs": [
                {
                    "internalType": "uint256",
                    "name": "balance",
                    "type": "uint256"
                },
                {
                    "internalType": "uint256",
                    "name": "needed",
                    "type": "uint256"
                }
            ],
            "name": "InsufficientBalance",
            "type": "error"
        },
        {
            "anonymous": false,
            "inputs": [
                {
                    "indexed": true,
                    "internalType": "address",
                    "name": "nft",
                    "type": "address"
                },
                {
                    "indexed": true,
                    "internalType": "uint256",
                    "name": "tokenId",
                    "type": "uint256"
                },
                {
                    "indexed": true,
                    "internalType": "address",
                    "name": "auction",
                    "type": "address"
                }
            ],
            "name": "AuctionCreated",
            "type": "event"
        },
        {
            "inputs": [
                {
                    "internalType": "address",
                    "name": "_nft",
                    "type": "address"
                }
            ],
            "name": "auctionOf",
            "outputs": [
                {
                    "internalType": "address",
                    "name": "",
                    "type": "address"
                }
            ],
            "stateMutability": "view",
            "type": "function"
        },
        {
            "inputs": [
                {
                    "internalType": "address",
                    "name": "_nft",
                    "type": "address"
                },
                {
                    "internalType": "uint256",
                    "name": "_tokenId",
                    "type": "uint256"
                },
                {
                    "internalType": "uint256",
                    "name": "_duration",
                    "type": "uint256"
                },
                {
                    "internalType": "uint256",
                    "name": "_startPrice",
                    "type": "uint256"
                },
                {
                    "internalType": "bytes32",
                    "name": "_salt",
                    "type": "bytes32"
                }
            ],
            "name": "createAuction",
            "outputs": [
                {
                    "internalType": "address",
                    "name": "auction",
                    "type": "address"
                }
            ],
            "stateMutability": "payable",
            "type": "function"
        },
        {
            "inputs": [
                {
                    "internalType": "address",
                    "name": "_nft",
                    "type": "address"
                }
            ],
            "name": "getAuction",
            "outputs": [
                {
                    "internalType": "address",
                    "name": "",
                    "type": "address"
                }
            ],
            "stateMutability": "view",
            "type": "function"
        },
        {
            "inputs": [],
            "name": "getNFTs",
            "outputs": [
                {
                    "internalType": "address[]",
                    "name": "",
                    "type": "address[]"
                }
            ],
            "stateMutability": "view",
            "type": "function"
        },
        {
            "inputs": [
                {
                    "internalType": "uint256",
                    "name": "",
                    "type": "uint256"
                }
            ],
            "name": "nfts",
            "outputs": [
                {
                    "internalType": "address",
                    "name": "",
                    "type": "address"
                }
            ],
            "stateMutability": "view",
            "type": "function"
        },
        {
            "inputs": [
                {
                    "internalType": "bytes32",
                    "name": "_salt",
                    "type": "bytes32"
                }
            ],
            "name": "predictAuctionAddress",
            "outputs": [
                {
                    "internalType": "address",
                    "name": "",
                    "type": "address"
                }
            ],
            "stateMutability": "view",
            "type": "function"
        },
        {
            "inputs": [],
            "name": "template",
            "outputs": [
                {
                    "internalType": "address",
                    "name": "",
                    "type": "address"
                }
            ],
            "stateMutability": "view",
            "type": "function"
        }
    ],
    "bytecode": "60a034607357601f61060d38819003918201601f19168301916001600160401b03831184841017607757808492602094604052833981010312607357516001600160a01b0381168103607357608052604051610581908161008c823960805181818160cb0152818161013c01526101ca0152f35b5f80fd5b634e487b7160e01b5f52604160045260245ffdfe6080806040526004361015610012575f80fd5b5f905f3560e01c908163227212f2146103b0575080632554649a146101ae578063265aa6211461016b5780636f2ddd931461012657806379deae7b14610101578063d106c24a146100ae5763e08d98bc1461006b575f80fd5b346100ab5760203660031901126100ab576020906001600160a01b0361008f610473565b16815260018252604060018060a01b0391205416604051908152f35b80fd5b50346100ab5760203660031901126100ab5760206100ef306004357f00000000000000000000000000000000000000000000000000000000000000006104e9565b6040516001600160a01b039091168152f35b50346100ab5760203660031901126100ab576020906001600160a01b0361008f610473565b50346100ab57806003193601126100ab576040517f00000000000000000000000000000000000000000000000000000000000000006001600160a01b03168152602090f35b50346100ab5760203660031901126100ab576004359080548210156100ab57602061019583610489565b905460405160039290921b1c6001600160a01b03168152f35b5060a0366003190112610368576101c3610473565b60243591907f00000000000000000000000000000000000000000000000000000000000000006084356101f73082846104e9565b91823b61037b5780763d602d80600a3d3981f3363d3d373d3d3d363d7300000062ffffff6e5af43d82803e903d91602b57fd5bf39360881c16175f5260781b1760205260018060a01b0390603760095ff5161561036c576001600160a01b031690813b1561036857604051634ec81af160e01b81526001600160a01b03909116600482018190526024820185905260448035908301526064803590830152905f8160848183875af1801561035d57610348575b50825468010000000000000000811015610334579382916102d2866001602098018755610489565b81546001600160a01b0360039290921b91821b19169083901b17905580855260018652604080862080546001600160a01b0319168517905551947fca437d90ed6373b827a01275bd2fdfe7e6406d7ecd400662ee0533d3546ab17a9080a48152f35b634e487b7160e01b84526041600452602484fd5b6103559193505f906104b3565b5f915f6102aa565b6040513d5f823e3d90fd5b5f80fd5b63b06ebf3d60e01b5f5260045ffd5b60405162461bcd60e51b815260206004820152600d60248201526c185d58dd1a5bdb88195e1a5cdd609a1b6044820152606490fd5b34610368575f366003190112610368575f54908181526020810180925f80527f290decd9548b62a8d60345a988386fc84ba6bc95484008f6362f93160ef3e563905f5b81811061045457505050816104099103826104b3565b604051918291602083019060208452518091526040830191905f5b818110610432575050500390f35b82516001600160a01b0316845285945060209384019390920191600101610424565b82546001600160a01b03168452602090930192600192830192016103f3565b600435906001600160a01b038216820361036857565b5f5481101561049f575f805260205f2001905f90565b634e487b7160e01b5f52603260045260245ffd5b90601f8019910116810190811067ffffffffffffffff8211176104d557604052565b634e487b7160e01b5f52604160045260245ffd5b60405160388101939093526f5af43d82803e903d91602b57fd5bf3ff60248401526014830152733d602d80600a3d3981f3363d3d373d3d3d363d73825260588201526037600c820120607882015260556043909101206001600160a01b03169056fea26469706673582212206eb90c73c519949055ac26aa1bf36d589764ef3a580d5b74c62ef30638d298e364736f6c634300081a0033",
    "sourcePath": "//wsl.localhost/Ubuntu-22.04/home/oliver/project/hardhat_project/contracts/NFTAuctionFactory.sol",
    "compiler": {
        "name": "solc",
        "version": "0.8.26+commit.8a97fa7a"
    },
    "functionHashes": {
        "auctionOf(address)": "e08d98bc",
        "createAuction(address,uint256,uint256,uint256,bytes32)": "2554649a",
        "getAuction(address)": "79deae7b",
        "getNFTs()": "227212f2",
        "nfts(uint256)": "265aa621",
        "predictAuctionAddress(bytes32)": "d106c24a",
        "template()": "6f2ddd93"
    },
    "gasEstimates": {
        "creation": {
            "codeDepositCost": "281800",
            "executionCost": "infinite",
            "totalCost": "infinite"
        },
        "external": {
            "auctionOf(address)": "2563",
            "createAuction(address,uint256,uint256,uint256,bytes32)": "infinite",
            "getAuction(address)": "2524",
            "getNFTs()": "infinite",
            "nfts(uint256)": "6686",
            "predictAuctionAddress(bytes32)": "infinite",
            "template()": "infinite"
        }
    }
}